{
  "_format": "hh-sol-artifact-1",
  "contractName": "GifPortal",
  "sourceName": "contracts/GifPortal.sol",
  "abi": [
    {
      "anonymous": false,
      "inputs": [
        {
          "indexed": true,
          "internalType": "address",
          "name": "from",
          "type": "address"
        },
        {
          "indexed": false,
          "internalType": "string",
          "name": "url",
          "type": "string"
        },
        {
          "indexed": false,
          "internalType": "uint256",
          "name": "timestamp",
          "type": "uint256"
        }
      ],
      "name": "NewGif",
      "type": "event"
    },
    {
      "inputs": [
        {
          "internalType": "string",
          "name": "url",
          "type": "string"
        }
      ],
      "name": "addGif",
      "outputs": [],
      "stateMutability": "nonpayable",
      "type": "function"
    },
    {
      "inputs": [],
      "name": "destroy",
      "outputs": [],
      "stateMutability": "nonpayable",
      "type": "function"
    },
    {
      "inputs": [],
      "name": "getAllGifs",
      "outputs": [
        {
          "components": [
            {
              "internalType": "address",
              "name": "user",
              "type": "address"
            },
            {
              "internalType": "string",
              "name": "url",
              "type": "string"
            },
            {
              "internalType": "uint256",
              "name": "timestamp",
              "type": "uint256"
            }
          ],
          "internalType": "struct GifPortal.Gif[]",
          "name": "",
          "type": "tuple[]"
        }
      ],
      "stateMutability": "view",
      "type": "function"
    },
    {
      "inputs": [],
      "name": "getTotalGifs",
      "outputs": [
        {
          "internalType": "uint256",
          "name": "",
          "type": "uint256"
        }
      ],
      "stateMutability": "view",
      "type": "function"
    }
  ],
  "bytecode": "0x608060405234801561001057600080fd5b50336000806101000a81548173ffffffffffffffffffffffffffffffffffffffff021916908373ffffffffffffffffffffffffffffffffffffffff160217905550610cd0806100606000396000f3fe608060405234801561001057600080fd5b506004361061004c5760003560e01c8063438eadeb14610051578063580a4ec91461006f57806383197ef01461008b578063f0cc424f14610095575b600080fd5b6100596100b3565b60405161006691906108e8565b60405180910390f35b610089600480360381019061008491906106fd565b610204565b005b61009361037c565b005b61009d610443565b6040516100aa919061099f565b60405180910390f35b60606002805480602002602001604051908101604052809291908181526020016000905b828210156101fb57838290600052602060002090600302016040518060600160405290816000820160009054906101000a900473ffffffffffffffffffffffffffffffffffffffff1673ffffffffffffffffffffffffffffffffffffffff1673ffffffffffffffffffffffffffffffffffffffff16815260200160018201805461016090610b4a565b80601f016020809104026020016040519081016040528092919081815260200182805461018c90610b4a565b80156101d95780601f106101ae576101008083540402835291602001916101d9565b820191906000526020600020905b8154815290600101906020018083116101bc57829003601f168201915b50505050508152602001600282015481525050815260200190600101906100d7565b50505050905090565b60018060008282546102169190610a76565b9250508190555061025d6040518060400160405280601781526020017f2573206164646564206769667320772f2075726c202573000000000000000000815250338361048e565b600260405180606001604052803373ffffffffffffffffffffffffffffffffffffffff16815260200183815260200142815250908060018154018082558091505060019003906000526020600020906003020160009091909190915060008201518160000160006101000a81548173ffffffffffffffffffffffffffffffffffffffff021916908373ffffffffffffffffffffffffffffffffffffffff160217905550602082015181600101908051906020019061031c9291906105f2565b506040820151816002015550503373ffffffffffffffffffffffffffffffffffffffff167f5be2626c7d77412c0cddaa06a5b85e8a80d86429ea18b7a6c7fa0a81708f630b824260405161037192919061094f565b60405180910390a250565b60008054906101000a900473ffffffffffffffffffffffffffffffffffffffff1673ffffffffffffffffffffffffffffffffffffffff163373ffffffffffffffffffffffffffffffffffffffff161461040a576040517f08c379a00000000000000000000000000000000000000000000000000000000081526004016104019061097f565b60405180910390fd5b60008054906101000a900473ffffffffffffffffffffffffffffffffffffffff1673ffffffffffffffffffffffffffffffffffffffff16ff5b60006104866040518060400160405280601681526020017f5765206861766520256420746f74616c2067696673210000000000000000000081525060015461052d565b600154905090565b6105288383836040516024016104a69392919061090a565b6040516020818303038152906040527fe0e9ad4f000000000000000000000000000000000000000000000000000000007bffffffffffffffffffffffffffffffffffffffffffffffffffffffff19166020820180517bffffffffffffffffffffffffffffffffffffffffffffffffffffffff83818316178352505050506105c9565b505050565b6105c5828260405160240161054392919061094f565b6040516020818303038152906040527f9710a9d0000000000000000000000000000000000000000000000000000000007bffffffffffffffffffffffffffffffffffffffffffffffffffffffff19166020820180517bffffffffffffffffffffffffffffffffffffffffffffffffffffffff83818316178352505050506105c9565b5050565b60008151905060006a636f6e736f6c652e6c6f679050602083016000808483855afa5050505050565b8280546105fe90610b4a565b90600052602060002090601f0160209004810192826106205760008555610667565b82601f1061063957805160ff1916838001178555610667565b82800160010185558215610667579182015b8281111561066657825182559160200191906001019061064b565b5b5090506106749190610678565b5090565b5b80821115610691576000816000905550600101610679565b5090565b60006106a86106a3846109df565b6109ba565b9050828152602081018484840111156106c057600080fd5b6106cb848285610b08565b509392505050565b600082601f8301126106e457600080fd5b81356106f4848260208601610695565b91505092915050565b60006020828403121561070f57600080fd5b600082013567ffffffffffffffff81111561072957600080fd5b610735848285016106d3565b91505092915050565b600061074a838361087a565b905092915050565b61075b81610acc565b82525050565b61076a81610acc565b82525050565b600061077b82610a20565b6107858185610a43565b93508360208202850161079785610a10565b8060005b858110156107d357848403895281516107b4858261073e565b94506107bf83610a36565b925060208a0199505060018101905061079b565b50829750879550505050505092915050565b60006107f082610a2b565b6107fa8185610a54565b935061080a818560208601610b17565b61081381610c3a565b840191505092915050565b600061082982610a2b565b6108338185610a65565b9350610843818560208601610b17565b61084c81610c3a565b840191505092915050565b6000610864603383610a65565b915061086f82610c4b565b604082019050919050565b60006060830160008301516108926000860182610752565b50602083015184820360208601526108aa82826107e5565b91505060408301516108bf60408601826108ca565b508091505092915050565b6108d381610afe565b82525050565b6108e281610afe565b82525050565b600060208201905081810360008301526109028184610770565b905092915050565b60006060820190508181036000830152610924818661081e565b90506109336020830185610761565b8181036040830152610945818461081e565b9050949350505050565b60006040820190508181036000830152610969818561081e565b905061097860208301846108d9565b9392505050565b6000602082019050818103600083015261099881610857565b9050919050565b60006020820190506109b460008301846108d9565b92915050565b60006109c46109d5565b90506109d08282610b7c565b919050565b6000604051905090565b600067ffffffffffffffff8211156109fa576109f9610c0b565b5b610a0382610c3a565b9050602081019050919050565b6000819050602082019050919050565b600081519050919050565b600081519050919050565b6000602082019050919050565b600082825260208201905092915050565b600082825260208201905092915050565b600082825260208201905092915050565b6000610a8182610afe565b9150610a8c83610afe565b9250827fffffffffffffffffffffffffffffffffffffffffffffffffffffffffffffffff03821115610ac157610ac0610bad565b5b828201905092915050565b6000610ad782610ade565b9050919050565b600073ffffffffffffffffffffffffffffffffffffffff82169050919050565b6000819050919050565b82818337600083830152505050565b60005b83811015610b35578082015181840152602081019050610b1a565b83811115610b44576000848401525b50505050565b60006002820490506001821680610b6257607f821691505b60208210811415610b7657610b75610bdc565b5b50919050565b610b8582610c3a565b810181811067ffffffffffffffff82111715610ba457610ba3610c0b565b5b80604052505050565b7f4e487b7100000000000000000000000000000000000000000000000000000000600052601160045260246000fd5b7f4e487b7100000000000000000000000000000000000000000000000000000000600052602260045260246000fd5b7f4e487b7100000000000000000000000000000000000000000000000000000000600052604160045260246000fd5b6000601f19601f8301169050919050565b7f546869732066756e6374696f6e206973207265737472696374656420746f207460008201527f686520636f6e74726163742773206f776e65720000000000000000000000000060208201525056fea2646970667358221220a7908f899f5663c702e45c23ac9816274c3fb5d78ab61d9aa610f8d4713dd28264736f6c63430008040033",
  "linkReferences": {},
  "deployedLinkReferences": {}
}